:100000000C942A000C943F000C943F000C943F0089
:100010000C943F000C943F000C943F000C943F0064
:100020000C943F000C943F000C943F000C943F0054
:100030000C943F000C943F000C943F000C943F0044
:100040000C943F000C943F000C943F000C943F0034
:100050000C943F0011241FBECFE5D8E0DEBFCDBF1A
:1000600011E0A0E6B0E0E6EAF2E002C005900D92F1
:10007000AA38B107D9F70E94E3000C9451010C94FF
:100080000000DF93CF9300D000D00F92CDB7DEB742
:100090009C838B830FC084E690E09A83898305C09C
:1000A00089819A8101979A83898389819A81181617
:1000B0001906B4F31D828B819C81009711F081E0B9
:1000C0008D838B819C8101979C838B838D81882379
:1000D00011F70F900F900F900F900F90CF91DF912D
:1000E0000895DF93CF93CDB7DEB7EDE2F0E083E57F
:1000F0008083CF91DF910895DF93CF93CDB7DEB7A3
:10010000A7E3B0E0E7E3F0E08081806B8C93A8E3A5
:10011000B0E0E8E3F0E08081806F8C93EDE2F0E006
:1001200083E58083CF91DF910895DF93CF930F9282
:10013000CDB7DEB78983EFE2F0E089818083EEE21C
:10014000F0E080818823DCF70F90CF91DF91089554
:10015000DF93CF9300D0CDB7DEB789836A83A8E35E
:10016000B0E0E8E3F0E080818F7E8C9389810E948B
:10017000950089810E949500A8E3B0E0E8E3F0E0F3
:10018000808180618C930F900F90CF91DF910895C3
:10019000DF93CF93CDB7DEB789E060E00E94A8007F
:1001A0008AE06FE00E94A8008BE062E00E94A80055
:1001B0008CE061E00E94A8008FE060E00E94A8004F
:1001C000CF91DF910895DF93CF93CDB7DEB76097DE
:1001D0000FB6F894DEBF0FBECDBFCE0103969D874C
:1001E0008C87E0E8F1E0FF87EE87F9E0F88BEE8599
:1001F000FF8500808E859F8501969F878E87EC8581
:10020000FD8500828C859D8501969D878C879889C8
:100210009150988BE889EE2351F7AAE3B0E0EAE326
:10022000F0E0808187608C930E947C0084E690E0FF
:100230000E9441000E94C80019822FC081E08A8379
:1002400022C08981282F30E083E290E0AC01421B7C
:10025000530B8A81882F90E09C0121503040CA01C5
:10026000880F991F880F991F880F991F820F931F5E
:10027000FC01E05AFF4F90818A81692F0E94A800FB
:100280008A818F5F8A838A818930D8F288EC90E0F6
:100290000E94410089818F5F89838981843270F255
:0602A000CBCFF894FFCF64
:1002A6003C4242424242423C103050101010101064
:1002B6007E02027E4040407E3E02023E02023E0038
:1002C60008182848FE0808083C20203C04043C0086
:1002D6003C20203C24243C003E2204080808080850
:1002E600003E22223E22223E3E22223E0202023EC2
:1002F6000814223E222222223C22223E22223C00B6
:100306003C40404040403C007C42424242427C00ED
:100316007C40407C4040407C7C40407C40404040AB
:100326003C4040404044443C4444447C444444446F
:100336007C1010101010107C3C0808080808483083
:100346000024283020302824404040404040407C53
:1003560081C3A59981818181004262524A46420049
:100366003C4242424242423C3C2222223C20202045
:100376001C2222222226221D3C2222223C24222129
:10038600001E20203E02023C003E0808080808081D
:10039600424242424242221C4242424242422418C5
:1003A60000494949492A1C000041221408142241E7
:1003B6004122140808080808007F02040810207F5C
:0A03C600007E02027E4040407E00EF
:00000001FF
