:100000000C9446000C945B000C945B000C945B0019
:100010000C945B000C945B000C945B000C945B00F4
:100020000C945B000C945B000C945B000C945B00E4
:100030000C945B000C945B000C945B000C945B00D4
:100040000C945B000C945B000C945B000C945B00C4
:100050000C945B000C945B000C945B000C945B00B4
:100060000C945B000C945B000C945B000C945B00A4
:100070000C945B000C945B000C945B000C945B0094
:100080000C945B000C945B000C945B0011241FBE6D
:10009000CFEFD0E1DEBFCDBF12E0A0E0B1E0E6E8F7
:1000A000F2E002C005900D92A032B107D9F70E948C
:1000B000FF000C9441010C940000DF93CF9300D01B
:1000C00000D00F92CDB7DEB79C838B830FC084E640
:1000D00090E09A83898305C089819A8101979A83E8
:1000E000898389819A8118161906B4F31D828B8140
:1000F0009C81009711F081E08D838B819C81019719
:100100009C838B838D81882311F70F900F900F9024
:100110000F900F90CF91DF910895DF93CF9300D090
:10012000CDB7DEB78A8388E0898326C0ABE3B0E031
:10013000EBE3F0E080818B7F8C938A81882344F409
:10014000ABE3B0E0EBE3F0E0808181608C9307C02B
:10015000ABE3B0E0EBE3F0E080818E7F8C938A81AB
:10016000880F8A83ABE3B0E0EBE3F0E0808184604A
:100170008C9389818150898389818823B9F60F9076
:100180000F90CF91DF910895DF93CF9300D0CDB73B
:10019000DEB789836A83ABE3B0E0EBE3F0E0808114
:1001A0008D7F8C9389810E948D008A810E948D00B1
:1001B000ABE3B0E0EBE3F0E0808182608C930F90E2
:1001C0000F90CF91DF910895DF93CF93CDB7DEB736
:1001D00089E060E00E94C4008AE06FE00E94C400F1
:1001E0008BE067E00E94C4008CE061E00E94C400E4
:1001F0008FE060E00E94C400CF91DF910895DF930B
:10020000CF9300D0CDB7DEB7AAE3B0E0EAE3F0E0E9
:10021000808187608C9384E690E00E945D000E945C
:10022000E40019822AC081E08A831DC08981482F99
:1002300050E08A81882F90E09C0121503040CA0113
:10024000880F991F880F991F880F991F820F931F7E
:10025000FC01E050FF4F90818A81692F0E94C40009
:100260008A818F5F8A838A81893000F388EE93E0E8
:100270000E945D0089818F5F89838981843298F231
:06028000D0CFF894FFCF7F
:100286003C4242424242423C103050101010101084
:100296007E02027E4040407E3E02023E02023E0058
:1002A60008182848FE0808083C20203C04043C00A6
:1002B6003C20203C24243C003E2204080808080870
:1002C600003E22223E22223E3E22223E0202023EE2
:1002D6000814223E222222223C22223E22223C00D6
:1002E6003C40404040403C007C42424242427C000E
:1002F6007C40407C4040407C7C40407C40404040CC
:100306003C4040404044443C4444447C444444448F
:100316007C1010101010107C3C08080808084830A3
:100326000024283020302824404040404040407C73
:1003360081C3A59981818181004262524A46420069
:100346003C4242424242423C3C2222223C20202065
:100356001C2222222226221D3C2222223C24222149
:10036600001E20203E02023C003E0808080808083D
:10037600424242424242221C4242424242422418E5
:1003860000494949492A1C00004122140814224107
:100396004122140808080808007F02040810207F7C
:00000001FF
