:100000000C942A000C9447000C9447000C94470071
:100010000C9447000C9447000C9447000C94470044
:100020000C9447000C9447000C9447000C94470034
:100030000C9447000C9447000C9447000C94470024
:100040000C9447000C9447000C9447000C94470014
:100050000C94470011241FBECFE5D8E0DEBFCDBF12
:1000600010E0A0E6B0E0E6E9F5E002C005900D92F0
:10007000A038B107D9F710E0A0E8B0E001C01D92A8
:10008000A03AB107E1F70E94B2020C94C9020C94A5
:100090000000DF93CF9300D00F92CDB7DEB78B83F4
:1000A00019821A8213C08981880F89838B81882FD6
:1000B00090E081709070882319F089818160898334
:1000C0008B8186958B838A818F5F8A838A81883032
:1000D00050F389810F900F900F90CF91DF91089589
:1000E0000F931F93DF93CF9300D000D00F92CDB723
:1000F000DEB79D838C838C819D819A8389831B824B
:1001000012C08B81882F90E0E981FA812081FC0167
:10011000E058FF4F208389819A8102969A838983D0
:100120008B818F5F8B838B81883058F38C819D818D
:100130009A83898389819A8101969A8389831B8214
:1001400012C08B81882F90E0E981FA812081FC0127
:10015000E857FF4F208389819A8102969A83898389
:100160008B818F5F8B838B81883058F38C819D814D
:100170009A83898389819A814F969A8389831B8286
:1001800014C08B81082F10E0E981FA8180810E94E0
:100190004900F801E057FF4F808389819A810297D7
:1001A0009A8389838B818F5F8B838B81883048F31F
:1001B0008C819D819A83898389819A814E969A83C5
:1001C00089831B8214C08B81082F10E0E981FA819A
:1001D00080810E944900F801E856FF4F80838981A1
:1001E0009A8102979A8389838B818F5F8B838B811E
:1001F000883048F30F900F900F900F900F90CF9191
:10020000DF911F910F910895DF93CF9300D000D01D
:1002100000D0CDB7DEB79E838D831C821B8212C0B7
:100220001A82198205C089819A8101969A838983ED
:1002300089819A8180379105B0F38B819C810196E9
:100240009C838B832B813C818D819E81281739076C
:1002500038F326960FB6F894DEBF0FBECDBFCF9110
:10026000DF910895DF93CF9300D0CDB7DEB78A83B7
:1002700088E0898326C0A8E3B0E0E8E3F0E080816D
:100280008E7F8C938A81882344F4A8E3B0E0E8E36E
:10029000F0E0808184608C9307C0A8E3B0E0E8E3DD
:1002A000F0E080818B7F8C938A81880F8A83A8E31A
:1002B000B0E0E8E3F0E0808181608C938981815037
:1002C000898389818823B9F60F900F90CF91DF91B0
:1002D0000895DF93CF9300D000D0CDB7DEB78A83E7
:1002E0006B834C83A8E3B0E0E8E3F0E080818D7F8E
:1002F0008C9384E0898309C080E00E94320180E011
:100300000E94320189818150898389818823A1F7E4
:100310008A810E9432018B810E9432018C81898303
:1003200009C080E00E94320180E00E943201898190
:100330008150898389818823A1F7A8E3B0E0E8E3AD
:10034000F0E0808182608C930F900F900F900F905F
:10035000CF91DF910895DF93CF9300D000D0CDB738
:10036000DEB78B836C83A8E3B0E0E8E3F0E0808144
:100370008D7F8C9384E0898309C080E00E943201E4
:1003800080E00E943201898181508983898188239C
:10039000A1F71A8209C08B810E9432018C810E94D0
:1003A00032018A818F5F8A838A818430A0F3A8E337
:1003B000B0E0E8E3F0E0808182608C930F900F90D2
:1003C0000F900F90CF91DF910895DF93CF930F920D
:1003D000CDB7DEB7A7E3B0E0E7E3F0E08081876068
:1003E0008C93A8E3B0E0E8E3F0E080818E7F8C930B
:1003F000A8E3B0E0E8E3F0E080818D7F8C93198280
:1004000089E060E00E94AB018AE063E00E94AB01FA
:100410008BE067E00E94AB018CE061E00E94AB01E1
:100420008FE060E00E94AB010F90CF91DF910895C3
:10043000DF93CF9300D0CDB7DEB7198227C081E01C
:100440008A831EC08981482F50E08A81882F90E0DE
:100450009C0121503040CA01880F991F880F991FB5
:10046000880F991F820F931FFC01E058FF4F908166
:100470008A81692F49810E9469018A818F5F8A83FD
:100480008A818930F8F289818F5F898389818430FC
:10049000B0F20F900F90CF91DF910895DF93CF933B
:1004A00000D000D0CDB7DEB79C838B83EB81FC817D
:1004B00080818A838B819C81FC0131968081898334
:1004C000EB81FC818081880FEB81FC8180838B81B3
:1004D0009C81DC0111968B819C81FC01319680818D
:1004E000880F8C938A8188235CF48B819C81DC014A
:1004F00011968B819C81FC013196808181608C9367
:10050000898188233CF4EB81FC8180818160EB81CF
:10051000FC8180830F900F900F900F90CF91DF910F
:100520000895DF93CF9300D00F92CDB7DEB780E66A
:1005300090E09A8389831B820CC089819A810E94F2
:100540004E0289819A8102969A8389838B818F5F7B
:100550008B838B81803188F30F900F900F90CF9118
:10056000DF910895DF93CF93CDB7DEB782E390E0BC
:100570000E9404010E94E50180E690E00E94700064
:100580000E9418020E9491028CE291E00E940401F4
:06059000F3CFF894FFCF49
:1005960004100E10F89008500810FE9008501C1415
:1005A6001A1E29F028104810881008100810081084
:00000001FF
