:100000000C9446000C9463000C9463000C94630001
:100010000C9463000C9463000C9463000C946300D4
:100020000C9463000C9463000C9463000C946300C4
:100030000C9463000C9463000C9463000C946300B4
:100040000C9463000C9463000C9463000C946300A4
:100050000C9463000C9463000C9463000C94630094
:100060000C9463000C9463000C9463000C94630084
:100070000C9463000C9463000C9463000C94630074
:100080000C9463000C9463000C94630011241FBE55
:10009000CFEFD0E1DEBFCDBF13E0A0E0B1E0E0EDF7
:1000A000F4E002C005900D92A03AB107D9F716E02E
:1000B000A0EAB3E001C01D92A034B107E1F70E94AD
:1000C0004F020C9466020C940000282F90E080E010
:1000D000880F20FD81609F5F983011F02695F8CF42
:1000E00008956F927F928F929F92AF92BF92CF921C
:1000F000DF92EF92FF920F931F93CF93DF937C01D8
:1001000070EFA72E7FEFB72EA80EB91ECC24DD24EA
:1001100063E5662E712C52E5852E912CD701F601F0
:1001200043E0EE0FFF1F4A95E1F7E056FC4F90E0E9
:100130008C91819312969F5F9830D1F7D60133E06E
:10014000AA0FBB1F3A95E1F7A855BC4FF7019701DD
:10015000205F3F4F81818D933296E217F307D1F7ED
:1001600083010C191D0923E0000F111F2A95E1F7E7
:1001700000561C4FE7018E8D0E946500F8018193A7
:100180008F012297CA15DB05B1F784010C191D09EF
:1001900093E0000F111F9A95E1F700561C4FE701FD
:1001A0008F8D0E946500F80181938F012297CA15F7
:1001B000DB05B1F782E090E0C80ED91EE0E2F0E086
:1001C000EE0EFF1E80E2A82EB12CAC0EBD1EFAE290
:1001D000CF16D10409F0A2CFDF91CF911F910F91DB
:1001E000FF90EF90DF90CF90BF90AF909F908F9057
:1001F0007F906F900895089598E0C09887FF02C09F
:10020000C29A01C0C298C09A915011F0880FF5CFE0
:100210000895EF92FF920F931F93082FF62EE42E6E
:10022000C1981CE080E00E94FC0080E00E94FC007D
:100230001150C1F7802F0E94FC008F2D0E94FC00FE
:100240001E2D07C080E00E94FC0080E00E94FC00A0
:1002500011501123B9F7C19A1F910F91FF90EF90A0
:100260000895FF920F931F93F82E062FC19810E068
:100270008F2D0E94FC00802F0E94FC001F5F1C300D
:10028000B9F7C19A1F910F91FF90089587B38760C6
:1002900087BBC098C19889E060E00E9431018AE084
:1002A00063E00E9431018BE067E00E9431018CE045
:1002B00061E00E9431018FE060E00E943101089509
:1002C000EF92FF920F931F93CF93DF93EE24FF24BF
:1002D0000E2D063090F4E701F3E0CC0FDD1FFA9508
:1002E000E1F7C056DC4F11E0812F6991402F0E9449
:1002F00009011F5F1930C1F716C08E2D66E00E94FC
:100300005A02C92FD0E0E3E0CC0FDD1FEA95E1F7F8
:10031000C05FD94F11E0812F6991402F0E940901E0
:100320001F5F1930C1F70894E11CF11C8CE0E8163E
:10033000F10471F6DF91CF911F910F91FF90EF9033
:1003400008958F929F92AF92BF92CF92DF92EF92D9
:10035000FF920F931F93DF93CF93CDB7DEB76097D4
:100360000FB6F894DEBF0FBECDBFA0EAB3E020E029
:1003700030E0BE016F5F7F4FAE01475F5F4FFB0113
:10038000E20FF31F8C918083FA01E20FF31FA8564E
:10039000BD4F8C9180832F5F3F4FA759B2402830CB
:1003A000310569F7EE24FF2492E5892E912C5E0138
:1003B0000894A11CB11C89E0C82ED12CCC0EDD1EE6
:1003C00044C0F90190854C91F9E2EF16A1F0F901D2
:1003D0008081880F991F9927991F892B80834795C2
:1003E0004427479518968C9118978695482B189610
:1003F0004C93189719C0FB019081990FF501E00FFC
:10040000F11F8081881F8827881F982BFB0190830C
:10041000F601E00FF11F9081979599279795FB01C1
:1004200080858695982B90870F5F1F4F2F5F3F4FDA
:1004300011966F5F7F4F0830110519F60894E11C83
:10044000F11CFAE2EF16F104B9F0970103E0220F74
:10045000331F0A95E1F720563C4FD401AE19BF096E
:1004600013E0AA0FBB1F1A95E1F7A056BC4F68EE28
:1004700074E000E010E0A5CF60960FB6F894DEBF00
:100480000FBECDBFCF91DF911F910F91FF90EF90E5
:10049000DF90CF90BF90AF909F908F9008950E9473
:1004A000460180E091E00E9471000E9460010E947C
:1004B000A101FBCF991B79E004C0991F961708F0A2
:1004C000961B881F7A95C9F780950895F894FFCFF9
:1004D0000000000000007BCF31C631C439CC3BECBA
:1004E0001BF81F781E780E700C300C2000000000E6
:1004F00000000000000000000000000003E00F7892
:10050000180C3FFE3FFC38001C0C07F000000000F8
:100510000000000000800FC001C001C001C001C088
:1005200001C001C001C001C001C01FFC00000000EB
:1005300000000000000000000000000003E00F3891
:10054000181C3800380038041C0C0FF8000000009C
:1005500000000000000000000000000003E00F7831
:10056000380C300E700E380E181C0FF00000000012
:10057000000000000000000000000000771C7FFE6B
:1005800031C631C631C631C631C6FBFF000000009E
:1005900000000000000000000000000003E00F78F1
:1005A000180C3FFE3FFC38001C0C07F00000000058
:1005B000000000000000000000000000000000003B
:1005C000000000000000000000000000000000002B
:1005D0000000000000000000010003003FF83FF8A9
:1005E0000300030003000304030C01F800000000F3
:1005F00000000000000000000000000003E00F7891
:10060000380C300E700E380E181C0FF00000000071
:1006100000000000000000000000000000000000DA
:1006200000000000000000000000000000000000CA
:1006300000000000000000000000000003E00F7850
:10064000380C300E700E380E181C0FF00000000031
:10065000000000000000000000000000783C783C32
:10066000181C181C181C181C183C0FFE0000000059
:100670000000000000000000000000007E3C7EFE44
:100680000F040E000E000E000E007FE000000000C0
:10069000000000000000000000000000000000005A
:1006A000000000000000000000000000000000004A
:1006B00000000000000000000000000003E80E7CC5
:1006C000180C0F8003F8101C180C1FF80000000015
:1006D0000000000000000000010003003FF83FF8A8
:1006E0000300030003000304030C01F800000000F2
:1006F00000000000000000000000000003E00F7890
:10070000380C300E700E380E181C0FF00000000070
:100710000000000000000000000000007E3C7EFEA3
:100720000F040E000E000E000E007FE0000000001F
:1007300000000000000000000000000003E00F784F
:10074000180C3FFE3FFC38001C0C07F000000000B6
:100750000000000000000000000000000000000099
:100760000000000000000000000000000000000089
:00000001FF
